{
	"data": {
		"bytecode": {
			"linkReferences": {},
			"object": "608060405234801561000f575f5ffd5b506040516119223803806119228339818101604052810190610031919061023c565b856002819055508460035f6101000a81548173ffffffffffffffffffffffffffffffffffffffff021916908373ffffffffffffffffffffffffffffffffffffffff1602179055508360045f6101000a81548173ffffffffffffffffffffffffffffffffffffffff021916908373ffffffffffffffffffffffffffffffffffffffff1602179055508260055f6101000a81548173ffffffffffffffffffffffffffffffffffffffff021916908373ffffffffffffffffffffffffffffffffffffffff160217905550815f5f6101000a81548173ffffffffffffffffffffffffffffffffffffffff021916908373ffffffffffffffffffffffffffffffffffffffff1602179055508060015f6101000a81548173ffffffffffffffffffffffffffffffffffffffff021916908373ffffffffffffffffffffffffffffffffffffffff1602179055505f60075f6101000a81548160ff0219169083600381111561019b5761019a6102c5565b5b02179055505050505050506102f2565b5f5ffd5b5f819050919050565b6101c1816101af565b81146101cb575f5ffd5b50565b5f815190506101dc816101b8565b92915050565b5f73ffffffffffffffffffffffffffffffffffffffff82169050919050565b5f61020b826101e2565b9050919050565b61021b81610201565b8114610225575f5ffd5b50565b5f8151905061023681610212565b92915050565b5f5f5f5f5f5f60c08789031215610256576102556101ab565b5b5f61026389828a016101ce565b965050602061027489828a01610228565b955050604061028589828a01610228565b945050606061029689828a01610228565b93505060806102a789828a01610228565b92505060a06102b889828a01610228565b9150509295509295509295565b7f4e487b71000000000000000000000000000000000000000000000000000000005f52602160045260245ffd5b611623806102ff5f395ff3fe6080604052600436106100a6575f3560e01c8063c19d93fb11610063578063c19d93fb14610192578063da8909e5146101bc578063e2c41dbc146101e6578063e8a61cc8146101f0578063ee7a3b8e14610206578063f5ff5c7614610230576100a6565b806308551a53146100aa57806369d89575146100d45780637150d8ae146100ea5780639f054ba114610114578063aa8c217c1461013e578063ac60a26914610168575b5f5ffd5b3480156100b5575f5ffd5b506100be61025a565b6040516100cb9190610d34565b60405180910390f35b3480156100df575f5ffd5b506100e861027f565b005b3480156100f5575f5ffd5b506100fe610722565b60405161010b9190610d34565b60405180910390f35b34801561011f575f5ffd5b50610128610747565b6040516101359190610da8565b60405180910390f35b348015610149575f5ffd5b5061015261076b565b60405161015f9190610dd9565b60405180910390f35b348015610173575f5ffd5b5061017c610771565b6040516101899190610e62565b60405180910390f35b34801561019d575f5ffd5b506101a6610913565b6040516101b39190610ef5565b60405180910390f35b3480156101c7575f5ffd5b506101d0610925565b6040516101dd9190610f2e565b60405180910390f35b6101ee61094a565b005b3480156101fb575f5ffd5b50610204610ac2565b005b348015610211575f5ffd5b5061021a610cca565b6040516102279190610dd9565b60405180910390f35b34801561023b575f5ffd5b50610244610cd0565b6040516102519190610d34565b60405180910390f35b60045f9054906101000a900473ffffffffffffffffffffffffffffffffffffffff1681565b6001600381111561029357610292610e82565b5b60075f9054906101000a900460ff1660038111156102b4576102b3610e82565b5b146102f4576040517f08c379a00000000000000000000000000000000000000000000000000000000081526004016102eb90610f91565b60405180910390fd5b5f5f9054906101000a900473ffffffffffffffffffffffffffffffffffffffff1673ffffffffffffffffffffffffffffffffffffffff166309cc449d60025460035f9054906101000a900473ffffffffffffffffffffffffffffffffffffffff166040518363ffffffff1660e01b8152600401610372929190610faf565b602060405180830381865afa15801561038d573d5f5f3e3d5ffd5b505050506040513d601f19601f820116820180604052508101906103b1919061100f565b6103f0576040517f08c379a00000000000000000000000000000000000000000000000000000000081526004016103e790611084565b60405180910390fd5b600260075f6101000a81548160ff0219169083600381111561041557610414610e82565b5b02179055505f61271060015f9054906101000a900473ffffffffffffffffffffffffffffffffffffffff1673ffffffffffffffffffffffffffffffffffffffff1663d6b450386040518163ffffffff1660e01b8152600401602060405180830381865afa158015610488573d5f5f3e3d5ffd5b505050506040513d601f19601f820116820180604052508101906104ac91906110cc565b6006546104b99190611124565b6104c39190611192565b90505f816006546104d491906111c2565b90505f60015f9054906101000a900473ffffffffffffffffffffffffffffffffffffffff1673ffffffffffffffffffffffffffffffffffffffff168360055f9054906101000a900473ffffffffffffffffffffffffffffffffffffffff166006546040516024016105469291906111f5565b6040516020818303038152906040527f8d3d3323000000000000000000000000000000000000000000000000000000007bffffffffffffffffffffffffffffffffffffffffffffffffffffffff19166020820180517bffffffffffffffffffffffffffffffffffffffffffffffffffffffff83818316178352505050506040516105d09190611260565b5f6040518083038185875af1925050503d805f811461060a576040519150601f19603f3d011682016040523d82523d5f602084013e61060f565b606091505b5050905080610653576040517f08c379a000000000000000000000000000000000000000000000000000000000815260040161064a906112c0565b60405180910390fd5b5f60045f9054906101000a900473ffffffffffffffffffffffffffffffffffffffff1673ffffffffffffffffffffffffffffffffffffffff168360405161069990611301565b5f6040518083038185875af1925050503d805f81146106d3576040519150601f19603f3d011682016040523d82523d5f602084013e6106d8565b606091505b505090508061071c576040517f08c379a00000000000000000000000000000000000000000000000000000000081526004016107139061135f565b60405180910390fd5b50505050565b60035f9054906101000a900473ffffffffffffffffffffffffffffffffffffffff1681565b5f5f9054906101000a900473ffffffffffffffffffffffffffffffffffffffff1681565b60065481565b60605f600381111561078657610785610e82565b5b60075f9054906101000a900460ff1660038111156107a7576107a6610e82565b5b036107e9576040518060400160405280600981526020017f4e6f7446756e64656400000000000000000000000000000000000000000000008152509050610910565b600160038111156107fd576107fc610e82565b5b60075f9054906101000a900460ff16600381111561081e5761081d610e82565b5b03610860576040518060400160405280600681526020017f46756e64656400000000000000000000000000000000000000000000000000008152509050610910565b6002600381111561087457610873610e82565b5b60075f9054906101000a900460ff16600381111561089557610894610e82565b5b036108d7576040518060400160405280600981526020017f436f6d706c6574656400000000000000000000000000000000000000000000008152509050610910565b6040518060400160405280600881526020017f526566756e64656400000000000000000000000000000000000000000000000081525090505b90565b60075f9054906101000a900460ff1681565b60015f9054906101000a900473ffffffffffffffffffffffffffffffffffffffff1681565b60035f9054906101000a900473ffffffffffffffffffffffffffffffffffffffff1673ffffffffffffffffffffffffffffffffffffffff163373ffffffffffffffffffffffffffffffffffffffff16146109d9576040517f08c379a00000000000000000000000000000000000000000000000000000000081526004016109d0906113c7565b60405180910390fd5b5f60038111156109ec576109eb610e82565b5b60075f9054906101000a900460ff166003811115610a0d57610a0c610e82565b5b14610a4d576040517f08c379a0000000000000000000000000000000000000000000000000000000008152600401610a449061142f565b60405180910390fd5b5f3411610a8f576040517f08c379a0000000000000000000000000000000000000000000000000000000008152600401610a8690611497565b60405180910390fd5b34600681905550600160075f6101000a81548160ff02191690836003811115610abb57610aba610e82565b5b0217905550565b60016003811115610ad657610ad5610e82565b5b60075f9054906101000a900460ff166003811115610af757610af6610e82565b5b14610b37576040517f08c379a0000000000000000000000000000000000000000000000000000000008152600401610b2e906114ff565b60405180910390fd5b60035f9054906101000a900473ffffffffffffffffffffffffffffffffffffffff1673ffffffffffffffffffffffffffffffffffffffff163373ffffffffffffffffffffffffffffffffffffffff1614610bc6576040517f08c379a0000000000000000000000000000000000000000000000000000000008152600401610bbd90611567565b60405180910390fd5b600360075f6101000a81548160ff02191690836003811115610beb57610bea610e82565b5b02179055505f60065490505f6006819055505f60035f9054906101000a900473ffffffffffffffffffffffffffffffffffffffff1673ffffffffffffffffffffffffffffffffffffffff1682604051610c4390611301565b5f6040518083038185875af1925050503d805f8114610c7d576040519150601f19603f3d011682016040523d82523d5f602084013e610c82565b606091505b5050905080610cc6576040517f08c379a0000000000000000000000000000000000000000000000000000000008152600401610cbd906115cf565b60405180910390fd5b5050565b60025481565b60055f9054906101000a900473ffffffffffffffffffffffffffffffffffffffff1681565b5f73ffffffffffffffffffffffffffffffffffffffff82169050919050565b5f610d1e82610cf5565b9050919050565b610d2e81610d14565b82525050565b5f602082019050610d475f830184610d25565b92915050565b5f819050919050565b5f610d70610d6b610d6684610cf5565b610d4d565b610cf5565b9050919050565b5f610d8182610d56565b9050919050565b5f610d9282610d77565b9050919050565b610da281610d88565b82525050565b5f602082019050610dbb5f830184610d99565b92915050565b5f819050919050565b610dd381610dc1565b82525050565b5f602082019050610dec5f830184610dca565b92915050565b5f81519050919050565b5f82825260208201905092915050565b8281835e5f83830152505050565b5f601f19601f8301169050919050565b5f610e3482610df2565b610e3e8185610dfc565b9350610e4e818560208601610e0c565b610e5781610e1a565b840191505092915050565b5f6020820190508181035f830152610e7a8184610e2a565b905092915050565b7f4e487b71000000000000000000000000000000000000000000000000000000005f52602160045260245ffd5b60048110610ec057610ebf610e82565b5b50565b5f819050610ed082610eaf565b919050565b5f610edf82610ec3565b9050919050565b610eef81610ed5565b82525050565b5f602082019050610f085f830184610ee6565b92915050565b5f610f1882610d77565b9050919050565b610f2881610f0e565b82525050565b5f602082019050610f415f830184610f1f565b92915050565b7f4e6f7420696e2066756e646564207374617465000000000000000000000000005f82015250565b5f610f7b601383610dfc565b9150610f8682610f47565b602082019050919050565b5f6020820190508181035f830152610fa881610f6f565b9050919050565b5f604082019050610fc25f830185610dca565b610fcf6020830184610d25565b9392505050565b5f5ffd5b5f8115159050919050565b610fee81610fda565b8114610ff8575f5ffd5b50565b5f8151905061100981610fe5565b92915050565b5f6020828403121561102457611023610fd6565b5b5f61103184828501610ffb565b91505092915050565b7f50726f7065727479206e6f7420796574206f776e6564206279206275796572005f82015250565b5f61106e601f83610dfc565b91506110798261103a565b602082019050919050565b5f6020820190508181035f83015261109b81611062565b9050919050565b6110ab81610dc1565b81146110b5575f5ffd5b50565b5f815190506110c6816110a2565b92915050565b5f602082840312156110e1576110e0610fd6565b5b5f6110ee848285016110b8565b91505092915050565b7f4e487b71000000000000000000000000000000000000000000000000000000005f52601160045260245ffd5b5f61112e82610dc1565b915061113983610dc1565b925082820261114781610dc1565b9150828204841483151761115e5761115d6110f7565b5b5092915050565b7f4e487b71000000000000000000000000000000000000000000000000000000005f52601260045260245ffd5b5f61119c82610dc1565b91506111a783610dc1565b9250826111b7576111b6611165565b5b828204905092915050565b5f6111cc82610dc1565b91506111d783610dc1565b92508282039050818111156111ef576111ee6110f7565b5b92915050565b5f6040820190506112085f830185610d25565b6112156020830184610dca565b9392505050565b5f81519050919050565b5f81905092915050565b5f61123a8261121c565b6112448185611226565b9350611254818560208601610e0c565b80840191505092915050565b5f61126b8284611230565b915081905092915050565b7f436f6d6d697373696f6e207061796d656e74206661696c6564000000000000005f82015250565b5f6112aa601983610dfc565b91506112b582611276565b602082019050919050565b5f6020820190508181035f8301526112d78161129e565b9050919050565b50565b5f6112ec5f83611226565b91506112f7826112de565b5f82019050919050565b5f61130b826112e1565b9150819050919050565b7f5061796f757420746f2073656c6c6572206661696c65640000000000000000005f82015250565b5f611349601783610dfc565b915061135482611315565b602082019050919050565b5f6020820190508181035f8301526113768161133d565b9050919050565b7f4f6e6c792062757965722063616e206465706f736974000000000000000000005f82015250565b5f6113b1601683610dfc565b91506113bc8261137d565b602082019050919050565b5f6020820190508181035f8301526113de816113a5565b9050919050565b7f416c72656164792066756e6465640000000000000000000000000000000000005f82015250565b5f611419600e83610dfc565b9150611424826113e5565b602082019050919050565b5f6020820190508181035f8301526114468161140d565b9050919050565b7f4d757374206465706f736974203e2030000000000000000000000000000000005f82015250565b5f611481601083610dfc565b915061148c8261144d565b602082019050919050565b5f6020820190508181035f8301526114ae81611475565b9050919050565b7f526566756e64206e6f7420617661696c61626c650000000000000000000000005f82015250565b5f6114e9601483610dfc565b91506114f4826114b5565b602082019050919050565b5f6020820190508181035f830152611516816114dd565b9050919050565b7f4f6e6c792062757965722063616e207265717565737420726566756e640000005f82015250565b5f611551601d83610dfc565b915061155c8261151d565b602082019050919050565b5f6020820190508181035f83015261157e81611545565b9050919050565b7f526566756e64206661696c6564000000000000000000000000000000000000005f82015250565b5f6115b9600d83610dfc565b91506115c482611585565b602082019050919050565b5f6020820190508181035f8301526115e6816115ad565b905091905056fea264697066735822122059dd4d22fbf7480145e8d79b82375f2a445acac4ce600f908a11c4427930e61c64736f6c634300081e0033",
			"opcodes": "PUSH1 0x80 PUSH1 0x40 MSTORE CALLVALUE DUP1 ISZERO PUSH2 0xF JUMPI PUSH0 PUSH0 REVERT JUMPDEST POP PUSH1 0x40 MLOAD PUSH2 0x1922 CODESIZE SUB DUP1 PUSH2 0x1922 DUP4 CODECOPY DUP2 DUP2 ADD PUSH1 0x40 MSTORE DUP2 ADD SWAP1 PUSH2 0x31 SWAP2 SWAP1 PUSH2 0x23C JUMP JUMPDEST DUP6 PUSH1 0x2 DUP2 SWAP1 SSTORE POP DUP5 PUSH1 0x3 PUSH0 PUSH2 0x100 EXP DUP2 SLOAD DUP2 PUSH20 0xFFFFFFFFFFFFFFFFFFFFFFFFFFFFFFFFFFFFFFFF MUL NOT AND SWAP1 DUP4 PUSH20 0xFFFFFFFFFFFFFFFFFFFFFFFFFFFFFFFFFFFFFFFF AND MUL OR SWAP1 SSTORE POP DUP4 PUSH1 0x4 PUSH0 PUSH2 0x100 EXP DUP2 SLOAD DUP2 PUSH20 0xFFFFFFFFFFFFFFFFFFFFFFFFFFFFFFFFFFFFFFFF MUL NOT AND SWAP1 DUP4 PUSH20 0xFFFFFFFFFFFFFFFFFFFFFFFFFFFFFFFFFFFFFFFF AND MUL OR SWAP1 SSTORE POP DUP3 PUSH1 0x5 PUSH0 PUSH2 0x100 EXP DUP2 SLOAD DUP2 PUSH20 0xFFFFFFFFFFFFFFFFFFFFFFFFFFFFFFFFFFFFFFFF MUL NOT AND SWAP1 DUP4 PUSH20 0xFFFFFFFFFFFFFFFFFFFFFFFFFFFFFFFFFFFFFFFF AND MUL OR SWAP1 SSTORE POP DUP2 PUSH0 PUSH0 PUSH2 0x100 EXP DUP2 SLOAD DUP2 PUSH20 0xFFFFFFFFFFFFFFFFFFFFFFFFFFFFFFFFFFFFFFFF MUL NOT AND SWAP1 DUP4 PUSH20 0xFFFFFFFFFFFFFFFFFFFFFFFFFFFFFFFFFFFFFFFF AND MUL OR SWAP1 SSTORE POP DUP1 PUSH1 0x1 PUSH0 PUSH2 0x100 EXP DUP2 SLOAD DUP2 PUSH20 0xFFFFFFFFFFFFFFFFFFFFFFFFFFFFFFFFFFFFFFFF MUL NOT AND SWAP1 DUP4 PUSH20 0xFFFFFFFFFFFFFFFFFFFFFFFFFFFFFFFFFFFFFFFF AND MUL OR SWAP1 SSTORE POP PUSH0 PUSH1 0x7 PUSH0 PUSH2 0x100 EXP DUP2 SLOAD DUP2 PUSH1 0xFF MUL NOT AND SWAP1 DUP4 PUSH1 0x3 DUP2 GT ISZERO PUSH2 0x19B JUMPI PUSH2 0x19A PUSH2 0x2C5 JUMP JUMPDEST JUMPDEST MUL OR SWAP1 SSTORE POP POP POP POP POP POP POP PUSH2 0x2F2 JUMP JUMPDEST PUSH0 PUSH0 REVERT JUMPDEST PUSH0 DUP2 SWAP1 POP SWAP2 SWAP1 POP JUMP JUMPDEST PUSH2 0x1C1 DUP2 PUSH2 0x1AF JUMP JUMPDEST DUP2 EQ PUSH2 0x1CB JUMPI PUSH0 PUSH0 REVERT JUMPDEST POP JUMP JUMPDEST PUSH0 DUP2 MLOAD SWAP1 POP PUSH2 0x1DC DUP2 PUSH2 0x1B8 JUMP JUMPDEST SWAP3 SWAP2 POP POP JUMP JUMPDEST PUSH0 PUSH20 0xFFFFFFFFFFFFFFFFFFFFFFFFFFFFFFFFFFFFFFFF DUP3 AND SWAP1 POP SWAP2 SWAP1 POP JUMP JUMPDEST PUSH0 PUSH2 0x20B DUP3 PUSH2 0x1E2 JUMP JUMPDEST SWAP1 POP SWAP2 SWAP1 POP JUMP JUMPDEST PUSH2 0x21B DUP2 PUSH2 0x201 JUMP JUMPDEST DUP2 EQ PUSH2 0x225 JUMPI PUSH0 PUSH0 REVERT JUMPDEST POP JUMP JUMPDEST PUSH0 DUP2 MLOAD SWAP1 POP PUSH2 0x236 DUP2 PUSH2 0x212 JUMP JUMPDEST SWAP3 SWAP2 POP POP JUMP JUMPDEST PUSH0 PUSH0 PUSH0 PUSH0 PUSH0 PUSH0 PUSH1 0xC0 DUP8 DUP10 SUB SLT ISZERO PUSH2 0x256 JUMPI PUSH2 0x255 PUSH2 0x1AB JUMP JUMPDEST JUMPDEST PUSH0 PUSH2 0x263 DUP10 DUP3 DUP11 ADD PUSH2 0x1CE JUMP JUMPDEST SWAP7 POP POP PUSH1 0x20 PUSH2 0x274 DUP10 DUP3 DUP11 ADD PUSH2 0x228 JUMP JUMPDEST SWAP6 POP POP PUSH1 0x40 PUSH2 0x285 DUP10 DUP3 DUP11 ADD PUSH2 0x228 JUMP JUMPDEST SWAP5 POP POP PUSH1 0x60 PUSH2 0x296 DUP10 DUP3 DUP11 ADD PUSH2 0x228 JUMP JUMPDEST SWAP4 POP POP PUSH1 0x80 PUSH2 0x2A7 DUP10 DUP3 DUP11 ADD PUSH2 0x228 JUMP JUMPDEST SWAP3 POP POP PUSH1 0xA0 PUSH2 0x2B8 DUP10 DUP3 DUP11 ADD PUSH2 0x228 JUMP JUMPDEST SWAP2 POP POP SWAP3 SWAP6 POP SWAP3 SWAP6 POP SWAP3 SWAP6 JUMP JUMPDEST PUSH32 0x4E487B7100000000000000000000000000000000000000000000000000000000 PUSH0 MSTORE PUSH1 0x21 PUSH1 0x4 MSTORE PUSH1 0x24 PUSH0 REVERT JUMPDEST PUSH2 0x1623 DUP1 PUSH2 0x2FF PUSH0 CODECOPY PUSH0 RETURN INVALID PUSH1 0x80 PUSH1 0x40 MSTORE PUSH1 0x4 CALLDATASIZE LT PUSH2 0xA6 JUMPI PUSH0 CALLDATALOAD PUSH1 0xE0 SHR DUP1 PUSH4 0xC19D93FB GT PUSH2 0x63 JUMPI DUP1 PUSH4 0xC19D93FB EQ PUSH2 0x192 JUMPI DUP1 PUSH4 0xDA8909E5 EQ PUSH2 0x1BC JUMPI DUP1 PUSH4 0xE2C41DBC EQ PUSH2 0x1E6 JUMPI DUP1 PUSH4 0xE8A61CC8 EQ PUSH2 0x1F0 JUMPI DUP1 PUSH4 0xEE7A3B8E EQ PUSH2 0x206 JUMPI DUP1 PUSH4 0xF5FF5C76 EQ PUSH2 0x230 JUMPI PUSH2 0xA6 JUMP JUMPDEST DUP1 PUSH4 0x8551A53 EQ PUSH2 0xAA JUMPI DUP1 PUSH4 0x69D89575 EQ PUSH2 0xD4 JUMPI DUP1 PUSH4 0x7150D8AE EQ PUSH2 0xEA JUMPI DUP1 PUSH4 0x9F054BA1 EQ PUSH2 0x114 JUMPI DUP1 PUSH4 0xAA8C217C EQ PUSH2 0x13E JUMPI DUP1 PUSH4 0xAC60A269 EQ PUSH2 0x168 JUMPI JUMPDEST PUSH0 PUSH0 REVERT JUMPDEST CALLVALUE DUP1 ISZERO PUSH2 0xB5 JUMPI PUSH0 PUSH0 REVERT JUMPDEST POP PUSH2 0xBE PUSH2 0x25A JUMP JUMPDEST PUSH1 0x40 MLOAD PUSH2 0xCB SWAP2 SWAP1 PUSH2 0xD34 JUMP JUMPDEST PUSH1 0x40 MLOAD DUP1 SWAP2 SUB SWAP1 RETURN JUMPDEST CALLVALUE DUP1 ISZERO PUSH2 0xDF JUMPI PUSH0 PUSH0 REVERT JUMPDEST POP PUSH2 0xE8 PUSH2 0x27F JUMP JUMPDEST STOP JUMPDEST CALLVALUE DUP1 ISZERO PUSH2 0xF5 JUMPI PUSH0 PUSH0 REVERT JUMPDEST POP PUSH2 0xFE PUSH2 0x722 JUMP JUMPDEST PUSH1 0x40 MLOAD PUSH2 0x10B SWAP2 SWAP1 PUSH2 0xD34 JUMP JUMPDEST PUSH1 0x40 MLOAD DUP1 SWAP2 SUB SWAP1 RETURN JUMPDEST CALLVALUE DUP1 ISZERO PUSH2 0x11F JUMPI PUSH0 PUSH0 REVERT JUMPDEST POP PUSH2 0x128 PUSH2 0x747 JUMP JUMPDEST PUSH1 0x40 MLOAD PUSH2 0x135 SWAP2 SWAP1 PUSH2 0xDA8 JUMP JUMPDEST PUSH1 0x40 MLOAD DUP1 SWAP2 SUB SWAP1 RETURN JUMPDEST CALLVALUE DUP1 ISZERO PUSH2 0x149 JUMPI PUSH0 PUSH0 REVERT JUMPDEST POP PUSH2 0x152 PUSH2 0x76B JUMP JUMPDEST PUSH1 0x40 MLOAD PUSH2 0x15F SWAP2 SWAP1 PUSH2 0xDD9 JUMP JUMPDEST PUSH1 0x40 MLOAD DUP1 SWAP2 SUB SWAP1 RETURN JUMPDEST CALLVALUE DUP1 ISZERO PUSH2 0x173 JUMPI PUSH0 PUSH0 REVERT JUMPDEST POP PUSH2 0x17C PUSH2 0x771 JUMP JUMPDEST PUSH1 0x40 MLOAD PUSH2 0x189 SWAP2 SWAP1 PUSH2 0xE62 JUMP JUMPDEST PUSH1 0x40 MLOAD DUP1 SWAP2 SUB SWAP1 RETURN JUMPDEST CALLVALUE DUP1 ISZERO PUSH2 0x19D JUMPI PUSH0 PUSH0 REVERT JUMPDEST POP PUSH2 0x1A6 PUSH2 0x913 JUMP JUMPDEST PUSH1 0x40 MLOAD PUSH2 0x1B3 SWAP2 SWAP1 PUSH2 0xEF5 JUMP JUMPDEST PUSH1 0x40 MLOAD DUP1 SWAP2 SUB SWAP1 RETURN JUMPDEST CALLVALUE DUP1 ISZERO PUSH2 0x1C7 JUMPI PUSH0 PUSH0 REVERT JUMPDEST POP PUSH2 0x1D0 PUSH2 0x925 JUMP JUMPDEST PUSH1 0x40 MLOAD PUSH2 0x1DD SWAP2 SWAP1 PUSH2 0xF2E JUMP JUMPDEST PUSH1 0x40 MLOAD DUP1 SWAP2 SUB SWAP1 RETURN JUMPDEST PUSH2 0x1EE PUSH2 0x94A JUMP JUMPDEST STOP JUMPDEST CALLVALUE DUP1 ISZERO PUSH2 0x1FB JUMPI PUSH0 PUSH0 REVERT JUMPDEST POP PUSH2 0x204 PUSH2 0xAC2 JUMP JUMPDEST STOP JUMPDEST CALLVALUE DUP1 ISZERO PUSH2 0x211 JUMPI PUSH0 PUSH0 REVERT JUMPDEST POP PUSH2 0x21A PUSH2 0xCCA JUMP JUMPDEST PUSH1 0x40 MLOAD PUSH2 0x227 SWAP2 SWAP1 PUSH2 0xDD9 JUMP JUMPDEST PUSH1 0x40 MLOAD DUP1 SWAP2 SUB SWAP1 RETURN JUMPDEST CALLVALUE DUP1 ISZERO PUSH2 0x23B JUMPI PUSH0 PUSH0 REVERT JUMPDEST POP PUSH2 0x244 PUSH2 0xCD0 JUMP JUMPDEST PUSH1 0x40 MLOAD PUSH2 0x251 SWAP2 SWAP1 PUSH2 0xD34 JUMP JUMPDEST PUSH1 0x40 MLOAD DUP1 SWAP2 SUB SWAP1 RETURN JUMPDEST PUSH1 0x4 PUSH0 SWAP1 SLOAD SWAP1 PUSH2 0x100 EXP SWAP1 DIV PUSH20 0xFFFFFFFFFFFFFFFFFFFFFFFFFFFFFFFFFFFFFFFF AND DUP2 JUMP JUMPDEST PUSH1 0x1 PUSH1 0x3 DUP2 GT ISZERO PUSH2 0x293 JUMPI PUSH2 0x292 PUSH2 0xE82 JUMP JUMPDEST JUMPDEST PUSH1 0x7 PUSH0 SWAP1 SLOAD SWAP1 PUSH2 0x100 EXP SWAP1 DIV PUSH1 0xFF AND PUSH1 0x3 DUP2 GT ISZERO PUSH2 0x2B4 JUMPI PUSH2 0x2B3 PUSH2 0xE82 JUMP JUMPDEST JUMPDEST EQ PUSH2 0x2F4 JUMPI PUSH1 0x40 MLOAD PUSH32 0x8C379A000000000000000000000000000000000000000000000000000000000 DUP2 MSTORE PUSH1 0x4 ADD PUSH2 0x2EB SWAP1 PUSH2 0xF91 JUMP JUMPDEST PUSH1 0x40 MLOAD DUP1 SWAP2 SUB SWAP1 REVERT JUMPDEST PUSH0 PUSH0 SWAP1 SLOAD SWAP1 PUSH2 0x100 EXP SWAP1 DIV PUSH20 0xFFFFFFFFFFFFFFFFFFFFFFFFFFFFFFFFFFFFFFFF AND PUSH20 0xFFFFFFFFFFFFFFFFFFFFFFFFFFFFFFFFFFFFFFFF AND PUSH4 0x9CC449D PUSH1 0x2 SLOAD PUSH1 0x3 PUSH0 SWAP1 SLOAD SWAP1 PUSH2 0x100 EXP SWAP1 DIV PUSH20 0xFFFFFFFFFFFFFFFFFFFFFFFFFFFFFFFFFFFFFFFF AND PUSH1 0x40 MLOAD DUP4 PUSH4 0xFFFFFFFF AND PUSH1 0xE0 SHL DUP2 MSTORE PUSH1 0x4 ADD PUSH2 0x372 SWAP3 SWAP2 SWAP1 PUSH2 0xFAF JUMP JUMPDEST PUSH1 0x20 PUSH1 0x40 MLOAD DUP1 DUP4 SUB DUP2 DUP7 GAS STATICCALL ISZERO DUP1 ISZERO PUSH2 0x38D JUMPI RETURNDATASIZE PUSH0 PUSH0 RETURNDATACOPY RETURNDATASIZE PUSH0 REVERT JUMPDEST POP POP POP POP PUSH1 0x40 MLOAD RETURNDATASIZE PUSH1 0x1F NOT PUSH1 0x1F DUP3 ADD AND DUP3 ADD DUP1 PUSH1 0x40 MSTORE POP DUP2 ADD SWAP1 PUSH2 0x3B1 SWAP2 SWAP1 PUSH2 0x100F JUMP JUMPDEST PUSH2 0x3F0 JUMPI PUSH1 0x40 MLOAD PUSH32 0x8C379A000000000000000000000000000000000000000000000000000000000 DUP2 MSTORE PUSH1 0x4 ADD PUSH2 0x3E7 SWAP1 PUSH2 0x1084 JUMP JUMPDEST PUSH1 0x40 MLOAD DUP1 SWAP2 SUB SWAP1 REVERT JUMPDEST PUSH1 0x2 PUSH1 0x7 PUSH0 PUSH2 0x100 EXP DUP2 SLOAD DUP2 PUSH1 0xFF MUL NOT AND SWAP1 DUP4 PUSH1 0x3 DUP2 GT ISZERO PUSH2 0x415 JUMPI PUSH2 0x414 PUSH2 0xE82 JUMP JUMPDEST JUMPDEST MUL OR SWAP1 SSTORE POP PUSH0 PUSH2 0x2710 PUSH1 0x1 PUSH0 SWAP1 SLOAD SWAP1 PUSH2 0x100 EXP SWAP1 DIV PUSH20 0xFFFFFFFFFFFFFFFFFFFFFFFFFFFFFFFFFFFFFFFF AND PUSH20 0xFFFFFFFFFFFFFFFFFFFFFFFFFFFFFFFFFFFFFFFF AND PUSH4 0xD6B45038 PUSH1 0x40 MLOAD DUP2 PUSH4 0xFFFFFFFF AND PUSH1 0xE0 SHL DUP2 MSTORE PUSH1 0x4 ADD PUSH1 0x20 PUSH1 0x40 MLOAD DUP1 DUP4 SUB DUP2 DUP7 GAS STATICCALL ISZERO DUP1 ISZERO PUSH2 0x488 JUMPI RETURNDATASIZE PUSH0 PUSH0 RETURNDATACOPY RETURNDATASIZE PUSH0 REVERT JUMPDEST POP POP POP POP PUSH1 0x40 MLOAD RETURNDATASIZE PUSH1 0x1F NOT PUSH1 0x1F DUP3 ADD AND DUP3 ADD DUP1 PUSH1 0x40 MSTORE POP DUP2 ADD SWAP1 PUSH2 0x4AC SWAP2 SWAP1 PUSH2 0x10CC JUMP JUMPDEST PUSH1 0x6 SLOAD PUSH2 0x4B9 SWAP2 SWAP1 PUSH2 0x1124 JUMP JUMPDEST PUSH2 0x4C3 SWAP2 SWAP1 PUSH2 0x1192 JUMP JUMPDEST SWAP1 POP PUSH0 DUP2 PUSH1 0x6 SLOAD PUSH2 0x4D4 SWAP2 SWAP1 PUSH2 0x11C2 JUMP JUMPDEST SWAP1 POP PUSH0 PUSH1 0x1 PUSH0 SWAP1 SLOAD SWAP1 PUSH2 0x100 EXP SWAP1 DIV PUSH20 0xFFFFFFFFFFFFFFFFFFFFFFFFFFFFFFFFFFFFFFFF AND PUSH20 0xFFFFFFFFFFFFFFFFFFFFFFFFFFFFFFFFFFFFFFFF AND DUP4 PUSH1 0x5 PUSH0 SWAP1 SLOAD SWAP1 PUSH2 0x100 EXP SWAP1 DIV PUSH20 0xFFFFFFFFFFFFFFFFFFFFFFFFFFFFFFFFFFFFFFFF AND PUSH1 0x6 SLOAD PUSH1 0x40 MLOAD PUSH1 0x24 ADD PUSH2 0x546 SWAP3 SWAP2 SWAP1 PUSH2 0x11F5 JUMP JUMPDEST PUSH1 0x40 MLOAD PUSH1 0x20 DUP2 DUP4 SUB SUB DUP2 MSTORE SWAP1 PUSH1 0x40 MSTORE PUSH32 0x8D3D332300000000000000000000000000000000000000000000000000000000 PUSH28 0xFFFFFFFFFFFFFFFFFFFFFFFFFFFFFFFFFFFFFFFFFFFFFFFFFFFFFFFF NOT AND PUSH1 0x20 DUP3 ADD DUP1 MLOAD PUSH28 0xFFFFFFFFFFFFFFFFFFFFFFFFFFFFFFFFFFFFFFFFFFFFFFFFFFFFFFFF DUP4 DUP2 DUP4 AND OR DUP4 MSTORE POP POP POP POP PUSH1 0x40 MLOAD PUSH2 0x5D0 SWAP2 SWAP1 PUSH2 0x1260 JUMP JUMPDEST PUSH0 PUSH1 0x40 MLOAD DUP1 DUP4 SUB DUP2 DUP6 DUP8 GAS CALL SWAP3 POP POP POP RETURNDATASIZE DUP1 PUSH0 DUP2 EQ PUSH2 0x60A JUMPI PUSH1 0x40 MLOAD SWAP2 POP PUSH1 0x1F NOT PUSH1 0x3F RETURNDATASIZE ADD AND DUP3 ADD PUSH1 0x40 MSTORE RETURNDATASIZE DUP3 MSTORE RETURNDATASIZE PUSH0 PUSH1 0x20 DUP5 ADD RETURNDATACOPY PUSH2 0x60F JUMP JUMPDEST PUSH1 0x60 SWAP2 POP JUMPDEST POP POP SWAP1 POP DUP1 PUSH2 0x653 JUMPI PUSH1 0x40 MLOAD PUSH32 0x8C379A000000000000000000000000000000000000000000000000000000000 DUP2 MSTORE PUSH1 0x4 ADD PUSH2 0x64A SWAP1 PUSH2 0x12C0 JUMP JUMPDEST PUSH1 0x40 MLOAD DUP1 SWAP2 SUB SWAP1 REVERT JUMPDEST PUSH0 PUSH1 0x4 PUSH0 SWAP1 SLOAD SWAP1 PUSH2 0x100 EXP SWAP1 DIV PUSH20 0xFFFFFFFFFFFFFFFFFFFFFFFFFFFFFFFFFFFFFFFF AND PUSH20 0xFFFFFFFFFFFFFFFFFFFFFFFFFFFFFFFFFFFFFFFF AND DUP4 PUSH1 0x40 MLOAD PUSH2 0x699 SWAP1 PUSH2 0x1301 JUMP JUMPDEST PUSH0 PUSH1 0x40 MLOAD DUP1 DUP4 SUB DUP2 DUP6 DUP8 GAS CALL SWAP3 POP POP POP RETURNDATASIZE DUP1 PUSH0 DUP2 EQ PUSH2 0x6D3 JUMPI PUSH1 0x40 MLOAD SWAP2 POP PUSH1 0x1F NOT PUSH1 0x3F RETURNDATASIZE ADD AND DUP3 ADD PUSH1 0x40 MSTORE RETURNDATASIZE DUP3 MSTORE RETURNDATASIZE PUSH0 PUSH1 0x20 DUP5 ADD RETURNDATACOPY PUSH2 0x6D8 JUMP JUMPDEST PUSH1 0x60 SWAP2 POP JUMPDEST POP POP SWAP1 POP DUP1 PUSH2 0x71C JUMPI PUSH1 0x40 MLOAD PUSH32 0x8C379A000000000000000000000000000000000000000000000000000000000 DUP2 MSTORE PUSH1 0x4 ADD PUSH2 0x713 SWAP1 PUSH2 0x135F JUMP JUMPDEST PUSH1 0x40 MLOAD DUP1 SWAP2 SUB SWAP1 REVERT JUMPDEST POP POP POP POP JUMP JUMPDEST PUSH1 0x3 PUSH0 SWAP1 SLOAD SWAP1 PUSH2 0x100 EXP SWAP1 DIV PUSH20 0xFFFFFFFFFFFFFFFFFFFFFFFFFFFFFFFFFFFFFFFF AND DUP2 JUMP JUMPDEST PUSH0 PUSH0 SWAP1 SLOAD SWAP1 PUSH2 0x100 EXP SWAP1 DIV PUSH20 0xFFFFFFFFFFFFFFFFFFFFFFFFFFFFFFFFFFFFFFFF AND DUP2 JUMP JUMPDEST PUSH1 0x6 SLOAD DUP2 JUMP JUMPDEST PUSH1 0x60 PUSH0 PUSH1 0x3 DUP2 GT ISZERO PUSH2 0x786 JUMPI PUSH2 0x785 PUSH2 0xE82 JUMP JUMPDEST JUMPDEST PUSH1 0x7 PUSH0 SWAP1 SLOAD SWAP1 PUSH2 0x100 EXP SWAP1 DIV PUSH1 0xFF AND PUSH1 0x3 DUP2 GT ISZERO PUSH2 0x7A7 JUMPI PUSH2 0x7A6 PUSH2 0xE82 JUMP JUMPDEST JUMPDEST SUB PUSH2 0x7E9 JUMPI PUSH1 0x40 MLOAD DUP1 PUSH1 0x40 ADD PUSH1 0x40 MSTORE DUP1 PUSH1 0x9 DUP2 MSTORE PUSH1 0x20 ADD PUSH32 0x4E6F7446756E6465640000000000000000000000000000000000000000000000 DUP2 MSTORE POP SWAP1 POP PUSH2 0x910 JUMP JUMPDEST PUSH1 0x1 PUSH1 0x3 DUP2 GT ISZERO PUSH2 0x7FD JUMPI PUSH2 0x7FC PUSH2 0xE82 JUMP JUMPDEST JUMPDEST PUSH1 0x7 PUSH0 SWAP1 SLOAD SWAP1 PUSH2 0x100 EXP SWAP1 DIV PUSH1 0xFF AND PUSH1 0x3 DUP2 GT ISZERO PUSH2 0x81E JUMPI PUSH2 0x81D PUSH2 0xE82 JUMP JUMPDEST JUMPDEST SUB PUSH2 0x860 JUMPI PUSH1 0x40 MLOAD DUP1 PUSH1 0x40 ADD PUSH1 0x40 MSTORE DUP1 PUSH1 0x6 DUP2 MSTORE PUSH1 0x20 ADD PUSH32 0x46756E6465640000000000000000000000000000000000000000000000000000 DUP2 MSTORE POP SWAP1 POP PUSH2 0x910 JUMP JUMPDEST PUSH1 0x2 PUSH1 0x3 DUP2 GT ISZERO PUSH2 0x874 JUMPI PUSH2 0x873 PUSH2 0xE82 JUMP JUMPDEST JUMPDEST PUSH1 0x7 PUSH0 SWAP1 SLOAD SWAP1 PUSH2 0x100 EXP SWAP1 DIV PUSH1 0xFF AND PUSH1 0x3 DUP2 GT ISZERO PUSH2 0x895 JUMPI PUSH2 0x894 PUSH2 0xE82 JUMP JUMPDEST JUMPDEST SUB PUSH2 0x8D7 JUMPI PUSH1 0x40 MLOAD DUP1 PUSH1 0x40 ADD PUSH1 0x40 MSTORE DUP1 PUSH1 0x9 DUP2 MSTORE PUSH1 0x20 ADD PUSH32 0x436F6D706C657465640000000000000000000000000000000000000000000000 DUP2 MSTORE POP SWAP1 POP PUSH2 0x910 JUMP JUMPDEST PUSH1 0x40 MLOAD DUP1 PUSH1 0x40 ADD PUSH1 0x40 MSTORE DUP1 PUSH1 0x8 DUP2 MSTORE PUSH1 0x20 ADD PUSH32 0x526566756E646564000000000000000000000000000000000000000000000000 DUP2 MSTORE POP SWAP1 POP JUMPDEST SWAP1 JUMP JUMPDEST PUSH1 0x7 PUSH0 SWAP1 SLOAD SWAP1 PUSH2 0x100 EXP SWAP1 DIV PUSH1 0xFF AND DUP2 JUMP JUMPDEST PUSH1 0x1 PUSH0 SWAP1 SLOAD SWAP1 PUSH2 0x100 EXP SWAP1 DIV PUSH20 0xFFFFFFFFFFFFFFFFFFFFFFFFFFFFFFFFFFFFFFFF AND DUP2 JUMP JUMPDEST PUSH1 0x3 PUSH0 SWAP1 SLOAD SWAP1 PUSH2 0x100 EXP SWAP1 DIV PUSH20 0xFFFFFFFFFFFFFFFFFFFFFFFFFFFFFFFFFFFFFFFF AND PUSH20 0xFFFFFFFFFFFFFFFFFFFFFFFFFFFFFFFFFFFFFFFF AND CALLER PUSH20 0xFFFFFFFFFFFFFFFFFFFFFFFFFFFFFFFFFFFFFFFF AND EQ PUSH2 0x9D9 JUMPI PUSH1 0x40 MLOAD PUSH32 0x8C379A000000000000000000000000000000000000000000000000000000000 DUP2 MSTORE PUSH1 0x4 ADD PUSH2 0x9D0 SWAP1 PUSH2 0x13C7 JUMP JUMPDEST PUSH1 0x40 MLOAD DUP1 SWAP2 SUB SWAP1 REVERT JUMPDEST PUSH0 PUSH1 0x3 DUP2 GT ISZERO PUSH2 0x9EC JUMPI PUSH2 0x9EB PUSH2 0xE82 JUMP JUMPDEST JUMPDEST PUSH1 0x7 PUSH0 SWAP1 SLOAD SWAP1 PUSH2 0x100 EXP SWAP1 DIV PUSH1 0xFF AND PUSH1 0x3 DUP2 GT ISZERO PUSH2 0xA0D JUMPI PUSH2 0xA0C PUSH2 0xE82 JUMP JUMPDEST JUMPDEST EQ PUSH2 0xA4D JUMPI PUSH1 0x40 MLOAD PUSH32 0x8C379A000000000000000000000000000000000000000000000000000000000 DUP2 MSTORE PUSH1 0x4 ADD PUSH2 0xA44 SWAP1 PUSH2 0x142F JUMP JUMPDEST PUSH1 0x40 MLOAD DUP1 SWAP2 SUB SWAP1 REVERT JUMPDEST PUSH0 CALLVALUE GT PUSH2 0xA8F JUMPI PUSH1 0x40 MLOAD PUSH32 0x8C379A000000000000000000000000000000000000000000000000000000000 DUP2 MSTORE PUSH1 0x4 ADD PUSH2 0xA86 SWAP1 PUSH2 0x1497 JUMP JUMPDEST PUSH1 0x40 MLOAD DUP1 SWAP2 SUB SWAP1 REVERT JUMPDEST CALLVALUE PUSH1 0x6 DUP2 SWAP1 SSTORE POP PUSH1 0x1 PUSH1 0x7 PUSH0 PUSH2 0x100 EXP DUP2 SLOAD DUP2 PUSH1 0xFF MUL NOT AND SWAP1 DUP4 PUSH1 0x3 DUP2 GT ISZERO PUSH2 0xABB JUMPI PUSH2 0xABA PUSH2 0xE82 JUMP JUMPDEST JUMPDEST MUL OR SWAP1 SSTORE POP JUMP JUMPDEST PUSH1 0x1 PUSH1 0x3 DUP2 GT ISZERO PUSH2 0xAD6 JUMPI PUSH2 0xAD5 PUSH2 0xE82 JUMP JUMPDEST JUMPDEST PUSH1 0x7 PUSH0 SWAP1 SLOAD SWAP1 PUSH2 0x100 EXP SWAP1 DIV PUSH1 0xFF AND PUSH1 0x3 DUP2 GT ISZERO PUSH2 0xAF7 JUMPI PUSH2 0xAF6 PUSH2 0xE82 JUMP JUMPDEST JUMPDEST EQ PUSH2 0xB37 JUMPI PUSH1 0x40 MLOAD PUSH32 0x8C379A000000000000000000000000000000000000000000000000000000000 DUP2 MSTORE PUSH1 0x4 ADD PUSH2 0xB2E SWAP1 PUSH2 0x14FF JUMP JUMPDEST PUSH1 0x40 MLOAD DUP1 SWAP2 SUB SWAP1 REVERT JUMPDEST PUSH1 0x3 PUSH0 SWAP1 SLOAD SWAP1 PUSH2 0x100 EXP SWAP1 DIV PUSH20 0xFFFFFFFFFFFFFFFFFFFFFFFFFFFFFFFFFFFFFFFF AND PUSH20 0xFFFFFFFFFFFFFFFFFFFFFFFFFFFFFFFFFFFFFFFF AND CALLER PUSH20 0xFFFFFFFFFFFFFFFFFFFFFFFFFFFFFFFFFFFFFFFF AND EQ PUSH2 0xBC6 JUMPI PUSH1 0x40 MLOAD PUSH32 0x8C379A000000000000000000000000000000000000000000000000000000000 DUP2 MSTORE PUSH1 0x4 ADD PUSH2 0xBBD SWAP1 PUSH2 0x1567 JUMP JUMPDEST PUSH1 0x40 MLOAD DUP1 SWAP2 SUB SWAP1 REVERT JUMPDEST PUSH1 0x3 PUSH1 0x7 PUSH0 PUSH2 0x100 EXP DUP2 SLOAD DUP2 PUSH1 0xFF MUL NOT AND SWAP1 DUP4 PUSH1 0x3 DUP2 GT ISZERO PUSH2 0xBEB JUMPI PUSH2 0xBEA PUSH2 0xE82 JUMP JUMPDEST JUMPDEST MUL OR SWAP1 SSTORE POP PUSH0 PUSH1 0x6 SLOAD SWAP1 POP PUSH0 PUSH1 0x6 DUP2 SWAP1 SSTORE POP PUSH0 PUSH1 0x3 PUSH0 SWAP1 SLOAD SWAP1 PUSH2 0x100 EXP SWAP1 DIV PUSH20 0xFFFFFFFFFFFFFFFFFFFFFFFFFFFFFFFFFFFFFFFF AND PUSH20 0xFFFFFFFFFFFFFFFFFFFFFFFFFFFFFFFFFFFFFFFF AND DUP3 PUSH1 0x40 MLOAD PUSH2 0xC43 SWAP1 PUSH2 0x1301 JUMP JUMPDEST PUSH0 PUSH1 0x40 MLOAD DUP1 DUP4 SUB DUP2 DUP6 DUP8 GAS CALL SWAP3 POP POP POP RETURNDATASIZE DUP1 PUSH0 DUP2 EQ PUSH2 0xC7D JUMPI PUSH1 0x40 MLOAD SWAP2 POP PUSH1 0x1F NOT PUSH1 0x3F RETURNDATASIZE ADD AND DUP3 ADD PUSH1 0x40 MSTORE RETURNDATASIZE DUP3 MSTORE RETURNDATASIZE PUSH0 PUSH1 0x20 DUP5 ADD RETURNDATACOPY PUSH2 0xC82 JUMP JUMPDEST PUSH1 0x60 SWAP2 POP JUMPDEST POP POP SWAP1 POP DUP1 PUSH2 0xCC6 JUMPI PUSH1 0x40 MLOAD PUSH32 0x8C379A000000000000000000000000000000000000000000000000000000000 DUP2 MSTORE PUSH1 0x4 ADD PUSH2 0xCBD SWAP1 PUSH2 0x15CF JUMP JUMPDEST PUSH1 0x40 MLOAD DUP1 SWAP2 SUB SWAP1 REVERT JUMPDEST POP POP JUMP JUMPDEST PUSH1 0x2 SLOAD DUP2 JUMP JUMPDEST PUSH1 0x5 PUSH0 SWAP1 SLOAD SWAP1 PUSH2 0x100 EXP SWAP1 DIV PUSH20 0xFFFFFFFFFFFFFFFFFFFFFFFFFFFFFFFFFFFFFFFF AND DUP2 JUMP JUMPDEST PUSH0 PUSH20 0xFFFFFFFFFFFFFFFFFFFFFFFFFFFFFFFFFFFFFFFF DUP3 AND SWAP1 POP SWAP2 SWAP1 POP JUMP JUMPDEST PUSH0 PUSH2 0xD1E DUP3 PUSH2 0xCF5 JUMP JUMPDEST SWAP1 POP SWAP2 SWAP1 POP JUMP JUMPDEST PUSH2 0xD2E DUP2 PUSH2 0xD14 JUMP JUMPDEST DUP3 MSTORE POP POP JUMP JUMPDEST PUSH0 PUSH1 0x20 DUP3 ADD SWAP1 POP PUSH2 0xD47 PUSH0 DUP4 ADD DUP5 PUSH2 0xD25 JUMP JUMPDEST SWAP3 SWAP2 POP POP JUMP JUMPDEST PUSH0 DUP2 SWAP1 POP SWAP2 SWAP1 POP JUMP JUMPDEST PUSH0 PUSH2 0xD70 PUSH2 0xD6B PUSH2 0xD66 DUP5 PUSH2 0xCF5 JUMP JUMPDEST PUSH2 0xD4D JUMP JUMPDEST PUSH2 0xCF5 JUMP JUMPDEST SWAP1 POP SWAP2 SWAP1 POP JUMP JUMPDEST PUSH0 PUSH2 0xD81 DUP3 PUSH2 0xD56 JUMP JUMPDEST SWAP1 POP SWAP2 SWAP1 POP JUMP JUMPDEST PUSH0 PUSH2 0xD92 DUP3 PUSH2 0xD77 JUMP JUMPDEST SWAP1 POP SWAP2 SWAP1 POP JUMP JUMPDEST PUSH2 0xDA2 DUP2 PUSH2 0xD88 JUMP JUMPDEST DUP3 MSTORE POP POP JUMP JUMPDEST PUSH0 PUSH1 0x20 DUP3 ADD SWAP1 POP PUSH2 0xDBB PUSH0 DUP4 ADD DUP5 PUSH2 0xD99 JUMP JUMPDEST SWAP3 SWAP2 POP POP JUMP JUMPDEST PUSH0 DUP2 SWAP1 POP SWAP2 SWAP1 POP JUMP JUMPDEST PUSH2 0xDD3 DUP2 PUSH2 0xDC1 JUMP JUMPDEST DUP3 MSTORE POP POP JUMP JUMPDEST PUSH0 PUSH1 0x20 DUP3 ADD SWAP1 POP PUSH2 0xDEC PUSH0 DUP4 ADD DUP5 PUSH2 0xDCA JUMP JUMPDEST SWAP3 SWAP2 POP POP JUMP JUMPDEST PUSH0 DUP2 MLOAD SWAP1 POP SWAP2 SWAP1 POP JUMP JUMPDEST PUSH0 DUP3 DUP3 MSTORE PUSH1 0x20 DUP3 ADD SWAP1 POP SWAP3 SWAP2 POP POP JUMP JUMPDEST DUP3 DUP2 DUP4 MCOPY PUSH0 DUP4 DUP4 ADD MSTORE POP POP POP JUMP JUMPDEST PUSH0 PUSH1 0x1F NOT PUSH1 0x1F DUP4 ADD AND SWAP1 POP SWAP2 SWAP1 POP JUMP JUMPDEST PUSH0 PUSH2 0xE34 DUP3 PUSH2 0xDF2 JUMP JUMPDEST PUSH2 0xE3E DUP2 DUP6 PUSH2 0xDFC JUMP JUMPDEST SWAP4 POP PUSH2 0xE4E DUP2 DUP6 PUSH1 0x20 DUP7 ADD PUSH2 0xE0C JUMP JUMPDEST PUSH2 0xE57 DUP2 PUSH2 0xE1A JUMP JUMPDEST DUP5 ADD SWAP2 POP POP SWAP3 SWAP2 POP POP JUMP JUMPDEST PUSH0 PUSH1 0x20 DUP3 ADD SWAP1 POP DUP2 DUP2 SUB PUSH0 DUP4 ADD MSTORE PUSH2 0xE7A DUP2 DUP5 PUSH2 0xE2A JUMP JUMPDEST SWAP1 POP SWAP3 SWAP2 POP POP JUMP JUMPDEST PUSH32 0x4E487B7100000000000000000000000000000000000000000000000000000000 PUSH0 MSTORE PUSH1 0x21 PUSH1 0x4 MSTORE PUSH1 0x24 PUSH0 REVERT JUMPDEST PUSH1 0x4 DUP2 LT PUSH2 0xEC0 JUMPI PUSH2 0xEBF PUSH2 0xE82 JUMP JUMPDEST JUMPDEST POP JUMP JUMPDEST PUSH0 DUP2 SWAP1 POP PUSH2 0xED0 DUP3 PUSH2 0xEAF JUMP JUMPDEST SWAP2 SWAP1 POP JUMP JUMPDEST PUSH0 PUSH2 0xEDF DUP3 PUSH2 0xEC3 JUMP JUMPDEST SWAP1 POP SWAP2 SWAP1 POP JUMP JUMPDEST PUSH2 0xEEF DUP2 PUSH2 0xED5 JUMP JUMPDEST DUP3 MSTORE POP POP JUMP JUMPDEST PUSH0 PUSH1 0x20 DUP3 ADD SWAP1 POP PUSH2 0xF08 PUSH0 DUP4 ADD DUP5 PUSH2 0xEE6 JUMP JUMPDEST SWAP3 SWAP2 POP POP JUMP JUMPDEST PUSH0 PUSH2 0xF18 DUP3 PUSH2 0xD77 JUMP JUMPDEST SWAP1 POP SWAP2 SWAP1 POP JUMP JUMPDEST PUSH2 0xF28 DUP2 PUSH2 0xF0E JUMP JUMPDEST DUP3 MSTORE POP POP JUMP JUMPDEST PUSH0 PUSH1 0x20 DUP3 ADD SWAP1 POP PUSH2 0xF41 PUSH0 DUP4 ADD DUP5 PUSH2 0xF1F JUMP JUMPDEST SWAP3 SWAP2 POP POP JUMP JUMPDEST PUSH32 0x4E6F7420696E2066756E64656420737461746500000000000000000000000000 PUSH0 DUP3 ADD MSTORE POP JUMP JUMPDEST PUSH0 PUSH2 0xF7B PUSH1 0x13 DUP4 PUSH2 0xDFC JUMP JUMPDEST SWAP2 POP PUSH2 0xF86 DUP3 PUSH2 0xF47 JUMP JUMPDEST PUSH1 0x20 DUP3 ADD SWAP1 POP SWAP2 SWAP1 POP JUMP JUMPDEST PUSH0 PUSH1 0x20 DUP3 ADD SWAP1 POP DUP2 DUP2 SUB PUSH0 DUP4 ADD MSTORE PUSH2 0xFA8 DUP2 PUSH2 0xF6F JUMP JUMPDEST SWAP1 POP SWAP2 SWAP1 POP JUMP JUMPDEST PUSH0 PUSH1 0x40 DUP3 ADD SWAP1 POP PUSH2 0xFC2 PUSH0 DUP4 ADD DUP6 PUSH2 0xDCA JUMP JUMPDEST PUSH2 0xFCF PUSH1 0x20 DUP4 ADD DUP5 PUSH2 0xD25 JUMP JUMPDEST SWAP4 SWAP3 POP POP POP JUMP JUMPDEST PUSH0 PUSH0 REVERT JUMPDEST PUSH0 DUP2 ISZERO ISZERO SWAP1 POP SWAP2 SWAP1 POP JUMP JUMPDEST PUSH2 0xFEE DUP2 PUSH2 0xFDA JUMP JUMPDEST DUP2 EQ PUSH2 0xFF8 JUMPI PUSH0 PUSH0 REVERT JUMPDEST POP JUMP JUMPDEST PUSH0 DUP2 MLOAD SWAP1 POP PUSH2 0x1009 DUP2 PUSH2 0xFE5 JUMP JUMPDEST SWAP3 SWAP2 POP POP JUMP JUMPDEST PUSH0 PUSH1 0x20 DUP3 DUP5 SUB SLT ISZERO PUSH2 0x1024 JUMPI PUSH2 0x1023 PUSH2 0xFD6 JUMP JUMPDEST JUMPDEST PUSH0 PUSH2 0x1031 DUP5 DUP3 DUP6 ADD PUSH2 0xFFB JUMP JUMPDEST SWAP2 POP POP SWAP3 SWAP2 POP POP JUMP JUMPDEST PUSH32 0x50726F7065727479206E6F7420796574206F776E656420627920627579657200 PUSH0 DUP3 ADD MSTORE POP JUMP JUMPDEST PUSH0 PUSH2 0x106E PUSH1 0x1F DUP4 PUSH2 0xDFC JUMP JUMPDEST SWAP2 POP PUSH2 0x1079 DUP3 PUSH2 0x103A JUMP JUMPDEST PUSH1 0x20 DUP3 ADD SWAP1 POP SWAP2 SWAP1 POP JUMP JUMPDEST PUSH0 PUSH1 0x20 DUP3 ADD SWAP1 POP DUP2 DUP2 SUB PUSH0 DUP4 ADD MSTORE PUSH2 0x109B DUP2 PUSH2 0x1062 JUMP JUMPDEST SWAP1 POP SWAP2 SWAP1 POP JUMP JUMPDEST PUSH2 0x10AB DUP2 PUSH2 0xDC1 JUMP JUMPDEST DUP2 EQ PUSH2 0x10B5 JUMPI PUSH0 PUSH0 REVERT JUMPDEST POP JUMP JUMPDEST PUSH0 DUP2 MLOAD SWAP1 POP PUSH2 0x10C6 DUP2 PUSH2 0x10A2 JUMP JUMPDEST SWAP3 SWAP2 POP POP JUMP JUMPDEST PUSH0 PUSH1 0x20 DUP3 DUP5 SUB SLT ISZERO PUSH2 0x10E1 JUMPI PUSH2 0x10E0 PUSH2 0xFD6 JUMP JUMPDEST JUMPDEST PUSH0 PUSH2 0x10EE DUP5 DUP3 DUP6 ADD PUSH2 0x10B8 JUMP JUMPDEST SWAP2 POP POP SWAP3 SWAP2 POP POP JUMP JUMPDEST PUSH32 0x4E487B7100000000000000000000000000000000000000000000000000000000 PUSH0 MSTORE PUSH1 0x11 PUSH1 0x4 MSTORE PUSH1 0x24 PUSH0 REVERT JUMPDEST PUSH0 PUSH2 0x112E DUP3 PUSH2 0xDC1 JUMP JUMPDEST SWAP2 POP PUSH2 0x1139 DUP4 PUSH2 0xDC1 JUMP JUMPDEST SWAP3 POP DUP3 DUP3 MUL PUSH2 0x1147 DUP2 PUSH2 0xDC1 JUMP JUMPDEST SWAP2 POP DUP3 DUP3 DIV DUP5 EQ DUP4 ISZERO OR PUSH2 0x115E JUMPI PUSH2 0x115D PUSH2 0x10F7 JUMP JUMPDEST JUMPDEST POP SWAP3 SWAP2 POP POP JUMP JUMPDEST PUSH32 0x4E487B7100000000000000000000000000000000000000000000000000000000 PUSH0 MSTORE PUSH1 0x12 PUSH1 0x4 MSTORE PUSH1 0x24 PUSH0 REVERT JUMPDEST PUSH0 PUSH2 0x119C DUP3 PUSH2 0xDC1 JUMP JUMPDEST SWAP2 POP PUSH2 0x11A7 DUP4 PUSH2 0xDC1 JUMP JUMPDEST SWAP3 POP DUP3 PUSH2 0x11B7 JUMPI PUSH2 0x11B6 PUSH2 0x1165 JUMP JUMPDEST JUMPDEST DUP3 DUP3 DIV SWAP1 POP SWAP3 SWAP2 POP POP JUMP JUMPDEST PUSH0 PUSH2 0x11CC DUP3 PUSH2 0xDC1 JUMP JUMPDEST SWAP2 POP PUSH2 0x11D7 DUP4 PUSH2 0xDC1 JUMP JUMPDEST SWAP3 POP DUP3 DUP3 SUB SWAP1 POP DUP2 DUP2 GT ISZERO PUSH2 0x11EF JUMPI PUSH2 0x11EE PUSH2 0x10F7 JUMP JUMPDEST JUMPDEST SWAP3 SWAP2 POP POP JUMP JUMPDEST PUSH0 PUSH1 0x40 DUP3 ADD SWAP1 POP PUSH2 0x1208 PUSH0 DUP4 ADD DUP6 PUSH2 0xD25 JUMP JUMPDEST PUSH2 0x1215 PUSH1 0x20 DUP4 ADD DUP5 PUSH2 0xDCA JUMP JUMPDEST SWAP4 SWAP3 POP POP POP JUMP JUMPDEST PUSH0 DUP2 MLOAD SWAP1 POP SWAP2 SWAP1 POP JUMP JUMPDEST PUSH0 DUP2 SWAP1 POP SWAP3 SWAP2 POP POP JUMP JUMPDEST PUSH0 PUSH2 0x123A DUP3 PUSH2 0x121C JUMP JUMPDEST PUSH2 0x1244 DUP2 DUP6 PUSH2 0x1226 JUMP JUMPDEST SWAP4 POP PUSH2 0x1254 DUP2 DUP6 PUSH1 0x20 DUP7 ADD PUSH2 0xE0C JUMP JUMPDEST DUP1 DUP5 ADD SWAP2 POP POP SWAP3 SWAP2 POP POP JUMP JUMPDEST PUSH0 PUSH2 0x126B DUP3 DUP5 PUSH2 0x1230 JUMP JUMPDEST SWAP2 POP DUP2 SWAP1 POP SWAP3 SWAP2 POP POP JUMP JUMPDEST PUSH32 0x436F6D6D697373696F6E207061796D656E74206661696C656400000000000000 PUSH0 DUP3 ADD MSTORE POP JUMP JUMPDEST PUSH0 PUSH2 0x12AA PUSH1 0x19 DUP4 PUSH2 0xDFC JUMP JUMPDEST SWAP2 POP PUSH2 0x12B5 DUP3 PUSH2 0x1276 JUMP JUMPDEST PUSH1 0x20 DUP3 ADD SWAP1 POP SWAP2 SWAP1 POP JUMP JUMPDEST PUSH0 PUSH1 0x20 DUP3 ADD SWAP1 POP DUP2 DUP2 SUB PUSH0 DUP4 ADD MSTORE PUSH2 0x12D7 DUP2 PUSH2 0x129E JUMP JUMPDEST SWAP1 POP SWAP2 SWAP1 POP JUMP JUMPDEST POP JUMP JUMPDEST PUSH0 PUSH2 0x12EC PUSH0 DUP4 PUSH2 0x1226 JUMP JUMPDEST SWAP2 POP PUSH2 0x12F7 DUP3 PUSH2 0x12DE JUMP JUMPDEST PUSH0 DUP3 ADD SWAP1 POP SWAP2 SWAP1 POP JUMP JUMPDEST PUSH0 PUSH2 0x130B DUP3 PUSH2 0x12E1 JUMP JUMPDEST SWAP2 POP DUP2 SWAP1 POP SWAP2 SWAP1 POP JUMP JUMPDEST PUSH32 0x5061796F757420746F2073656C6C6572206661696C6564000000000000000000 PUSH0 DUP3 ADD MSTORE POP JUMP JUMPDEST PUSH0 PUSH2 0x1349 PUSH1 0x17 DUP4 PUSH2 0xDFC JUMP JUMPDEST SWAP2 POP PUSH2 0x1354 DUP3 PUSH2 0x1315 JUMP JUMPDEST PUSH1 0x20 DUP3 ADD SWAP1 POP SWAP2 SWAP1 POP JUMP JUMPDEST PUSH0 PUSH1 0x20 DUP3 ADD SWAP1 POP DUP2 DUP2 SUB PUSH0 DUP4 ADD MSTORE PUSH2 0x1376 DUP2 PUSH2 0x133D JUMP JUMPDEST SWAP1 POP SWAP2 SWAP1 POP JUMP JUMPDEST PUSH32 0x4F6E6C792062757965722063616E206465706F73697400000000000000000000 PUSH0 DUP3 ADD MSTORE POP JUMP JUMPDEST PUSH0 PUSH2 0x13B1 PUSH1 0x16 DUP4 PUSH2 0xDFC JUMP JUMPDEST SWAP2 POP PUSH2 0x13BC DUP3 PUSH2 0x137D JUMP JUMPDEST PUSH1 0x20 DUP3 ADD SWAP1 POP SWAP2 SWAP1 POP JUMP JUMPDEST PUSH0 PUSH1 0x20 DUP3 ADD SWAP1 POP DUP2 DUP2 SUB PUSH0 DUP4 ADD MSTORE PUSH2 0x13DE DUP2 PUSH2 0x13A5 JUMP JUMPDEST SWAP1 POP SWAP2 SWAP1 POP JUMP JUMPDEST PUSH32 0x416C72656164792066756E646564000000000000000000000000000000000000 PUSH0 DUP3 ADD MSTORE POP JUMP JUMPDEST PUSH0 PUSH2 0x1419 PUSH1 0xE DUP4 PUSH2 0xDFC JUMP JUMPDEST SWAP2 POP PUSH2 0x1424 DUP3 PUSH2 0x13E5 JUMP JUMPDEST PUSH1 0x20 DUP3 ADD SWAP1 POP SWAP2 SWAP1 POP JUMP JUMPDEST PUSH0 PUSH1 0x20 DUP3 ADD SWAP1 POP DUP2 DUP2 SUB PUSH0 DUP4 ADD MSTORE PUSH2 0x1446 DUP2 PUSH2 0x140D JUMP JUMPDEST SWAP1 POP SWAP2 SWAP1 POP JUMP JUMPDEST PUSH32 0x4D757374206465706F736974203E203000000000000000000000000000000000 PUSH0 DUP3 ADD MSTORE POP JUMP JUMPDEST PUSH0 PUSH2 0x1481 PUSH1 0x10 DUP4 PUSH2 0xDFC JUMP JUMPDEST SWAP2 POP PUSH2 0x148C DUP3 PUSH2 0x144D JUMP JUMPDEST PUSH1 0x20 DUP3 ADD SWAP1 POP SWAP2 SWAP1 POP JUMP JUMPDEST PUSH0 PUSH1 0x20 DUP3 ADD SWAP1 POP DUP2 DUP2 SUB PUSH0 DUP4 ADD MSTORE PUSH2 0x14AE DUP2 PUSH2 0x1475 JUMP JUMPDEST SWAP1 POP SWAP2 SWAP1 POP JUMP JUMPDEST PUSH32 0x526566756E64206E6F7420617661696C61626C65000000000000000000000000 PUSH0 DUP3 ADD MSTORE POP JUMP JUMPDEST PUSH0 PUSH2 0x14E9 PUSH1 0x14 DUP4 PUSH2 0xDFC JUMP JUMPDEST SWAP2 POP PUSH2 0x14F4 DUP3 PUSH2 0x14B5 JUMP JUMPDEST PUSH1 0x20 DUP3 ADD SWAP1 POP SWAP2 SWAP1 POP JUMP JUMPDEST PUSH0 PUSH1 0x20 DUP3 ADD SWAP1 POP DUP2 DUP2 SUB PUSH0 DUP4 ADD MSTORE PUSH2 0x1516 DUP2 PUSH2 0x14DD JUMP JUMPDEST SWAP1 POP SWAP2 SWAP1 POP JUMP JUMPDEST PUSH32 0x4F6E6C792062757965722063616E207265717565737420726566756E64000000 PUSH0 DUP3 ADD MSTORE POP JUMP JUMPDEST PUSH0 PUSH2 0x1551 PUSH1 0x1D DUP4 PUSH2 0xDFC JUMP JUMPDEST SWAP2 POP PUSH2 0x155C DUP3 PUSH2 0x151D JUMP JUMPDEST PUSH1 0x20 DUP3 ADD SWAP1 POP SWAP2 SWAP1 POP JUMP JUMPDEST PUSH0 PUSH1 0x20 DUP3 ADD SWAP1 POP DUP2 DUP2 SUB PUSH0 DUP4 ADD MSTORE PUSH2 0x157E DUP2 PUSH2 0x1545 JUMP JUMPDEST SWAP1 POP SWAP2 SWAP1 POP JUMP JUMPDEST PUSH32 0x526566756E64206661696C656400000000000000000000000000000000000000 PUSH0 DUP3 ADD MSTORE POP JUMP JUMPDEST PUSH0 PUSH2 0x15B9 PUSH1 0xD DUP4 PUSH2 0xDFC JUMP JUMPDEST SWAP2 POP PUSH2 0x15C4 DUP3 PUSH2 0x1585 JUMP JUMPDEST PUSH1 0x20 DUP3 ADD SWAP1 POP SWAP2 SWAP1 POP JUMP JUMPDEST PUSH0 PUSH1 0x20 DUP3 ADD SWAP1 POP DUP2 DUP2 SUB PUSH0 DUP4 ADD MSTORE PUSH2 0x15E6 DUP2 PUSH2 0x15AD JUMP JUMPDEST SWAP1 POP SWAP2 SWAP1 POP JUMP INVALID LOG2 PUSH5 0x6970667358 0x22 SLT KECCAK256 MSIZE 0xDD 0x4D 0x22 EXTSTATICCALL 0xF7 BASEFEE ADD GASLIMIT 0xE8 0xD7 SWAP12 DUP3 CALLDATACOPY PUSH0 0x2A PREVRANDAO GAS 0xCA 0xC4 0xCE PUSH1 0xF SWAP1 DUP11 GT 0xC4 TIMESTAMP PUSH26 0x30E61C64736F6C634300081E0033000000000000000000000000 "
		},
		"gasEstimates": {
			"creation": {
				"codeDepositCost": "1133400",
				"executionCost": "infinite",
				"totalCost": "infinite"
			},
			"external": {
				"agent()": "2618",
				"amount()": "2514",
				"buyer()": "2553",
				"commissionContract()": "infinite",
				"depositFunds()": "50961",
				"propertyId()": "2513",
				"refundBuyer()": "infinite",
				"releaseFunds()": "infinite",
				"seller()": "2509",
				"state()": "2554",
				"titleRegistry()": "infinite",
				"viewStatus()": "infinite"
			}
		},
		"methodIdentifiers": {
			"agent()": "f5ff5c76",
			"amount()": "aa8c217c",
			"buyer()": "7150d8ae",
			"commissionContract()": "da8909e5",
			"depositFunds()": "e2c41dbc",
			"propertyId()": "ee7a3b8e",
			"refundBuyer()": "e8a61cc8",
			"releaseFunds()": "69d89575",
			"seller()": "08551a53",
			"state()": "c19d93fb",
			"titleRegistry()": "9f054ba1",
			"viewStatus()": "ac60a269"
		}
	},
	"abi": [
		{
			"inputs": [
				{
					"internalType": "uint256",
					"name": "_propertyId",
					"type": "uint256"
				},
				{
					"internalType": "address",
					"name": "_buyer",
					"type": "address"
				},
				{
					"internalType": "address",
					"name": "_seller",
					"type": "address"
				},
				{
					"internalType": "address",
					"name": "_agent",
					"type": "address"
				},
				{
					"internalType": "address",
					"name": "_titleRegistry",
					"type": "address"
				},
				{
					"internalType": "address",
					"name": "_commissionContract",
					"type": "address"
				}
			],
			"stateMutability": "nonpayable",
			"type": "constructor"
		},
		{
			"inputs": [],
			"name": "agent",
			"outputs": [
				{
					"internalType": "address",
					"name": "",
					"type": "address"
				}
			],
			"stateMutability": "view",
			"type": "function"
		},
		{
			"inputs": [],
			"name": "amount",
			"outputs": [
				{
					"internalType": "uint256",
					"name": "",
					"type": "uint256"
				}
			],
			"stateMutability": "view",
			"type": "function"
		},
		{
			"inputs": [],
			"name": "buyer",
			"outputs": [
				{
					"internalType": "address",
					"name": "",
					"type": "address"
				}
			],
			"stateMutability": "view",
			"type": "function"
		},
		{
			"inputs": [],
			"name": "commissionContract",
			"outputs": [
				{
					"internalType": "contract AgentCommission",
					"name": "",
					"type": "address"
				}
			],
			"stateMutability": "view",
			"type": "function"
		},
		{
			"inputs": [],
			"name": "depositFunds",
			"outputs": [],
			"stateMutability": "payable",
			"type": "function"
		},
		{
			"inputs": [],
			"name": "propertyId",
			"outputs": [
				{
					"internalType": "uint256",
					"name": "",
					"type": "uint256"
				}
			],
			"stateMutability": "view",
			"type": "function"
		},
		{
			"inputs": [],
			"name": "refundBuyer",
			"outputs": [],
			"stateMutability": "nonpayable",
			"type": "function"
		},
		{
			"inputs": [],
			"name": "releaseFunds",
			"outputs": [],
			"stateMutability": "nonpayable",
			"type": "function"
		},
		{
			"inputs": [],
			"name": "seller",
			"outputs": [
				{
					"internalType": "address",
					"name": "",
					"type": "address"
				}
			],
			"stateMutability": "view",
			"type": "function"
		},
		{
			"inputs": [],
			"name": "state",
			"outputs": [
				{
					"internalType": "enum Escrow.EscrowState",
					"name": "",
					"type": "uint8"
				}
			],
			"stateMutability": "view",
			"type": "function"
		},
		{
			"inputs": [],
			"name": "titleRegistry",
			"outputs": [
				{
					"internalType": "contract TitleRegistry",
					"name": "",
					"type": "address"
				}
			],
			"stateMutability": "view",
			"type": "function"
		},
		{
			"inputs": [],
			"name": "viewStatus",
			"outputs": [
				{
					"internalType": "string",
					"name": "",
					"type": "string"
				}
			],
			"stateMutability": "view",
			"type": "function"
		}
	]
}